:020000040000FA
:060000002BEF09F01200D5
:020006001200E6
:080008009EA002D064EF06F097
:10001000F0A202D0AAEF07F0F0A002D0C2EF07F0E2
:10002000F2A402D0E7EF05F09EAA02D0B3EF02F0EF
:0A0030001200B00EF26EF28E120004
:05003A00434F4D0A00D8
:01003F0000C0
:0100400000BF
:090041004944454F4E4943530068
:01004A0000B5
:02004B00FFFFB5
:10005000090054140000B9010000050000004B0025
:100060000000BE010000020000004A000000C201C2
:1000700000000100000041000000B0010000090084
:1000800000004214000094010000120000003F0034
:1000900000000002000002000000C0130000020285
:1000A0000000820000002C130000000100009400FA
:0E00B0000000A6120000000300008600000001
:0200BE00D9CF98
:1000C000E6FFE1CFD9FF020EE126E66AE10EE66E19
:1000D000E66AE66A5DEC03F0E552E552E552E55268
:1000E000FE0EDBCF01F1FD0EDBCF02F1FC0EDBCF0C
:1000F00003F1FB0EDBCF04F1F90EDBCF89F1FA0E31
:10010000DBCF8AF129D8DE6ADD6ADECF10F0DDCFE1
:1001100011F0D890115004E61A0E105C000E115820
:100120000FE2DECF10F0DDCF11F0410E1024E66EAD
:10013000C2EC03F0E552DF2A010E01E3DB2AE5D72A
:10014000E1EC03F0020EE15C02E2E16AE552E16EED
:10015000E552E7CFD9FF1200E66AE10EE66EE66AE5
:10016000E66A5DEC03F0E552E552E552E552010125
:10017000856B0101866B0101010E006F0101876B28
:10018000010188698FC18BF190C18CF191C18DF112
:1001900092C18EF100C193F11200D9CFE6FFE1CFF9
:1001A000D9FF060EE126DF6A010100510101935DCE
:1001B0000FE1010100050CE0030E0101005D08E004
:1001C000010188070101885102E1C6DFCCD002D0CD
:1001D0000101886901010051030A01E1BDD0010A52
:1001E00014E0030A01E0BBD027EC04F0000903E0AF
:1001F00044EC04F0DF6E01010151DF5C05E1010117
:10020000856B0101020E006FACD027EC04F00009F1
:1002100001E1A9D00101886944EC04F0DF6E01011D
:100220000251DF5C01E07CD0020EDB6A030EDB686A
:10023000D950030FE66E000EDA20E66E9ED8E55226
:10024000E552E76E020EE7CFDBFF020EDB50020A3B
:1002500058E0030A05E0010A01E05DD07DDF83D0AC
:10026000010189518A114BE0D950040FE66E000E4E
:10027000DA20E66E870EE66E010EE66E070EE66E7B
:10028000010EE66E05D08AC1FAFF01018951F96EAF
:10029000FADF106E060EE15E10500101866F01015B
:1002A000FA0E456F0101862B87C146F10101862BAD
:1002B000DE52020EDD6E01018651F36E010EDBCFC0
:1002C000F4FFF350F45C1AE2040EDBCFE9FF050EF5
:1002D000DBCFEAFFEF50E66E010EDB50EA6A450F16
:1002E000E96E010EEA22E552E750EF6E040EDB2ABA
:1002F000050E01E3DB2A010EDB2ADDD701D02CDF5E
:100300000BD00101FA0E456F0101862B87C146F122
:100310000101862B01D000D00101030E006F1BD01C
:1003200001018551852BEA6A050FE96E010EEA226B
:10033000DFCFEFFF400E0101855D0DE30101FA0EF5
:10034000456F0101862B0101900E466F0101862B3E
:100350000101030E006F05D061D8FEDE02D0FCDE85
:1003600000D000C193F1060EE15C02E2E16AE552C1
:10037000E16EE552E7CFD9FF1200D9CFE6FFE1CF1A
:10038000D9FF020EE12601018505EA6A050FE96E33
:10039000010EEA22EFCFDFFF010EDB6AFA0E010148
:1003A000055D06E0FA0E0101055D02E0000E2AD0AF
:1003B00001018505E66E050EE66E010EE66EA1D81A
:1003C000E552E552E552E76E010EE7CFDBFF010E85
:1003D000DB50DF5C0DE10101850701018551EA6A0F
:1003E000050FE96E010EEA22EF6A010E0BD00AD06A
:1003F000FD0EDBCFE9FFFE0EDBCFEAFF910EEF6EC5
:10040000020E00D0106E020EE15C02E2E16AE552DB
:10041000E16E1050E552E7CFD9FF1200D9CFE6FFC9
:10042000E1CFD9FF020EE126DF6A010EDB6A86C149
:10043000E6FF450EE66E010EE66E63D8E552E55224
:10044000E552DF6E03C1E6FFC2EC03F0E552010E98
:10045000DB6A01018651F36E010EDBCFF4FFF3502E
:10046000F45C0FE2010EDB50EA6A450FE96E010E03
:10047000EA22EF50E66EC2EC03F0E552010EDB2AF1
:10048000E8D7DFCFE6FFC2EC03F0E55204C1E6FF98
:10049000C2EC03F0E552E1EC03F00400020EE15C73
:1004A00002E2E16AE552E16EE552E7CFD9FF1200C0
:1004B000D9CFE6FFE1CFD9FFFD0EDBCFF6FFFE0E71
:1004C000DBCFF7FF0800F55016E0FD0EDBCFF6FF9F
:1004D000FE0EDBCFF7FF0800F550E66EC2EC03F02E
:1004E000E552FD0EDBCFF6FFDB2AFE0EDBCFF7FF7A
:1004F00001E3DB2AE1D7E1EC03F0E552E7CFD9FFD6
:100500001200D9CFE6FFE1CFD9FF030EE126DF6A63
:10051000010EDB6AFC0EDB50F36E010EDBCFF4FF45
:10052000F350F45C12E2010EDB50E76EFD0EDBCF00
:10053000E9FFFE0EDBCFEAFFE750E926000EEA22D4
:10054000EF50DF1A010EDB2AE5D7DF5000D0106E26
:10055000030EE15C02E2E16AE552E16E1050E55201
:06056000E7CFD9FF1200F5
:0A056600DACFE4FFE2CFDAFFE9CFBD
:10057000E4FFEACFE4FFF6CFE4FFF7CFE4FFF5CFE7
:10058000E4FFF3CFE4FFF4CFE4FFFACFE4FF00EEA3
:1005900000F0100EE80403E3EECFE4FFFBD700EE1B
:1005A00010F0040EE80403E3EECFE4FFFBD7E652BD
:1005B000D9CFE6FFE1CFD9FFE65299EC08F0DF6E24
:1005C00003014351432BEA6A460FE96E030EEA2208
:1005D000DFCFEFFF400E0301435D02E30301436BF6
:1005E0000301452B9E9AE552E552E7CFD9FFE5522C
:1005F00000EE13F0040EE80403E3E5CFEDFFFBD7B4
:1006000000EE0FF0100EE80403E3E5CFEDFFFBD79B
:10061000E5CFFAFFE5CFF4FFE5CFF3FFE5CFF5FF38
:10062000E5CFF7FFE5CFF6FFE5CFEAFFE5CFE9FF3E
:10063000E5CFDAFF1100DACFE4FFE2CFDAFFE9CF4E
:10064000E4FFEACFE4FFE652D9CFE6FFE1CFD9FFDE
:10065000E6520301025104E1ACA2FED7AC9A21D0CC
:1006600003010151EA6A030FE96E030EEA22EFCF9C
:10067000DFFFDF50AD6E0301012B400E0301015D72
:1006800002E30301016B000E0301E76E0219E8AEFD
:1006900002D0023503D0E750D880025502E20301B0
:1006A0000207E552E552E7CFD9FFE552E5CFEAFF71
:1006B000E5CFE9FFE5CFDAFF1100D9CFE6FFE1CFC3
:1006C000D9FFE6527C0EDF6ED950FB0FE96EFF0EAC
:1006D000DA20EA6EEE2A000EEE22000EEE22000E66
:1006E000EE22D950FB0FE96EFF0EDA20EA6E040EFF
:1006F000E76ED890EF36010EEB36020EEB36030EA6
:10070000EB36E706F6E1106A240E116EF40E126E57
:10071000136A10C004F011C005F012C006F013C037
:1007200007F0FB0EDBCF09F0FC0EDBCF0AF0FD0E6D
:10073000DBCF0BF0FE0EDBCF0CF054EC08F0FB0E21
:1007400004C0DBFFFC0E05C0DBFFFD0E06C0DBFFB7
:10075000FE0E07C0DBFFFB0EDBCFE6FFFC0EDBCFA0
:10076000E6FFDFCFE6FF57EC07F0E552E552E55232
:10077000D08EAC8AAC9EF28C9F8AE552E552E7CFD0
:10078000D9FF1200D9CFE6FFE1CFD9FFACA2FED747
:1007900003010051002BEA6A030FE96E030EEA22FF
:1007A000FE0EDBCFEFFF0301022B400E0301005DC5
:1007B00002E30301006B010E00D0E552E7CFD9FF41
:1007C0001200D9CFE6FFE1CFD9FF020EE126000EDD
:1007D0000301E76E0219E8AE02D0023503D0E750FC
:1007E000D880025528E203010151EA6A030FE96E3D
:1007F000030EEA22010EEFCFDBFFACA2FED7010E03
:10080000DB50AD6EACA2FED70301012B400E0301FD
:10081000015D02E30301016B000E0301E76E0219A3
:10082000E8AE02D0023503D0E750D880025502E28C
:1008300003010207CCD7106E020EE15C02E2E16A0E
:10084000E552E16E1050E552E7CFD9FF1200D9CF43
:10085000E6FFE1CFD9FFE652DF6A9D9A000E030161
:10086000E76E4519E8AE02D0453503D0E750D88091
:10087000455502E2010EDF6E9D8ADF5000D0E55241
:10088000E552E7CFD9FF1200D9CFE6FFE1CFD9FF7C
:10089000E6529D9A03014451442BEA6A460FE96EE1
:1008A000030EEA22EFCFDFFF400E0301445D02E3B7
:1008B0000301446B000E0301E76E4519E8AE02D058
:1008C000453503D0E750D880455502E2030145077E
:1008D0009D8ADF5000D0E552E552E7CFD9FF1200E4
:1008E000520EE66E0B0EE66EDD0EE66ECC0EE66E7A
:1008F000BB0EE66EAA0EE66E5FEC00F0106E060E02
:10090000E15E10501200D9CFE6FFE1CFD9FFE652E9
:10091000F29E0201010513E10201016BF28E010159
:10092000010EBB6F0101010EBC6F020EE66EBB0E25
:10093000E66E010EE66E21D8E552E552E552F28EE2
:10094000F29E0201000513E10201006BF28E01012B
:10095000020EB96F0101010EBA6F020EE66EB90EFA
:10096000E66E010EE66E09D8E552E552E552F28ECA
:10097000E552E552E7CFD9FF1200D9CFE6FFE1CF2C
:10098000D9FF030EE126010EDB6A020EDB6ADF6A85
:10099000010EDB6AFC0EDB50DF5C68E2FD0EDBCF94
:1009A000E9FFFE0EDBCFEAFF020EEFCFDBFF020E08
:1009B000DB90DB92DB94DB96020EDB380F0BF36EE1
:1009C000020EF3CFDBFF020EDB50300FE66E0201AA
:1009D0000251080DF3CF10F0F4CF11F0040E1026E1
:1009E000020E1122010EDBCFF3FFDB2AF3500F01C1
:1009F0001024E96E000E1120EA6EE552E750EF6E0A
:100A0000FD0EDBCFE9FFFE0EDBCFEAFF020EEFCFDC
:100A1000DBFF020EDB98DB9ADB9CDB9E020EDB50D9
:100A2000300FE66E02010251080DF3CF10F0F4CF43
:100A300011F0040E1026020E1122010EDBCFF3FF7F
:100A4000DB2AF3500F011024E96E000E1120EA6E2C
:100A5000E552E750EF6EFD0EDBCFE9FFDB2AFE0E1D
:100A6000DBCFEAFF01E3DB2ADF2A94D70201025140
:100A7000080DF3CF10F0F4CF11F0040E1026020E83
:100A80001122010EDB500F011024E96E000E11201F
:100A9000EA6EEF6A0201022B100E0201025D02E310
:100AA0000201026B030EE15C02E2E16AE552E16ED3
:100AB000E552E7CFD9FF1200D9CFE6FFE1CFD9FF4A
:100AC000E652DF6A020103510201025D09E1FD0EF7
:100AD000DBCFE9FFFE0EDBCFEAFFEE6AED6A32D034
:100AE00002010351080DF3CF10F0F4CF11F0040E02
:100AF0001026020E1122FD0EDBCFE9FFFE0EDBCF2A
:100B0000EAFF10C0EEFF11C0EDFF02010351080D16
:100B1000F3CF10F0F4CF11F0040E1026020E1122C4
:100B200010C0E6FF11C0E6FF39EC09F0E552E552CE
:100B3000F350DF6E0201032B100E0201035D02E38E
:100B40000201036BDF5000D0E552E552E7CFD9FF39
:100B50001200D9CFE6FFE1CFD9FF030EE126FD0E4B
:100B6000DBCFE9FFFE0EDBCFEAFF010EEFCFDBFFAD
:100B7000020EDB6A010EDB50800A01E016D0F90E8E
:100B8000DBCFE6FFFA0EDBCFE6FF96DFE552E5525C
:100B9000E76E020EE7CFDBFFFB0EDBCFE9FFFC0EBB
:100BA000DBCFEAFF800EEF6E03D0020EDB6A00D0CF
:100BB000020EDB5000D0106E030EE15C02E2E16A2F
:0E0BC000E552E16E1050E552E7CFD9FF12006A
:020BCE00DACF7C
:100BD000E4FFE2CFDAFFE9CFE4FFEACFE4FFF6CFAC
:100BE000E4FFF7CFE4FFF5CFE4FFF3CFE4FFF4CF6A
:100BF000E4FFFACFE4FF00EE00F0100EE80403E398
:100C0000EECFE4FFFBD700EE10F0040EE80403E3A0
:100C1000EECFE4FFFBD7E652F29401019C2B000ECD
:100C20009D2301019E2B000E9F230101A02B000E8E
:100C3000A1230101C40EA25D090EA35904E2010122
:100C4000A22B000EA3230101C40EA45D090EA55919
:100C500004E20101A42B000EA52301019651971176
:100C600007E005D097C1FAFF01019651F96EFADF4E
:100C700094C1E6FF95C1E6FFD4EC08F0E552E552D9
:100C8000E55200EE13F0040EE80403E3E5CFEDFFB8
:100C9000FBD700EE0FF0100EE80403E3E5CFEDFF05
:100CA000FBD7E5CFFAFFE5CFF4FFE5CFF3FFE5CFC4
:100CB000F5FFE5CFF7FFE5CFF6FFE5CFEAFFE5CF9C
:100CC000E9FFE5CFDAFF1100DACFE4FFE2CFDAFF88
:100CD000E9CFE4FFEACFE4FFF6CFE4FFF7CFE4FF8C
:100CE000F5CFE4FFF3CFE4FFF4CFE4FFFACFE4FF66
:100CF00000EE00F0100EE80403E3EECFE4FFFBD7B4
:100D000000EE10F0040EE80403E3EECFE4FFFBD79F
:100D1000E6529E9098C1E6FF99C1E6FFB8EC08F054
:100D2000E552E55201019A519B1107E005D09BC1A4
:100D3000FAFF01019A51F96EFADFE55200EE13F065
:100D4000040EE80403E3E5CFEDFFFBD700EE0FF060
:100D5000100EE80403E3E5CFEDFFFBD7E5CFFAFF84
:100D6000E5CFF4FFE5CFF3FFE5CFF5FFE5CFF7FFE4
:100D7000E5CFF6FFE5CFEAFFE5CFE9FFE5CFDAFF04
:100D80001100D9CFE6FFE1CFD9FF9F0EE66EF0EC60
:100D900008F0E552FD0EDBCF94F1FE0EDBCF95F1AE
:100DA000FB0EDBCF96F1FC0EDBCF97F1FD0EDBCF18
:100DB000E6FFFE0EDBCFE6FFD4EC08F0E552E5528D
:100DC000E552E7CFD9FF1200D9CFE6FFE1CFD9FF37
:100DD000C50EE66E78EC08F0E552FD0EDBCFE6FFBF
:100DE000FE0EDBCFE6FFB8EC08F0E552E5529F803F
:100DF000FD0EDBCF98F1FE0EDBCF99F1FB0EDBCFC2
:100E00009AF1FC0EDBCF9BF1E552E7CFD9FF120040
:100E1000500EF66E000EF76E000EF86E010109001E
:100E2000F550AB6F0900F550AC6F03E1AB6701D033
:100E30003DD00900F550A66F0900F550A76F0900D5
:100E4000F550A86F09000900F550E96E0900F5504A
:100E5000EA6E090009000900F550A96F0900F55074
:100E6000AA6F09000900F6CFADF1F7CFAEF1F8CFC8
:100E7000AFF1A6C1F6FFA7C1F7FFA8C1F8FF0101B6
:100E8000A95302E1AA5307E00900F550EE6EA90745
:100E9000F8E2AA07F9D7ADC1F6FFAEC1F7FFAFC1BF
:0E0EA000F8FF0101AB07000EAC5BBFD71200DC
:020EAE00D9CF9A
:100EB000E6FFDACFE6FFE1CFD9FFE2CFDAFFAC6A97
:100EC000AB6AFD0EDBB0AC88DBA202D0AC8CAB8C85
:100ED000DBB4AC8EDBA602D0AB8801D0AB8ADBB82A
:100EE000AC849E98DBBAAB86DBAC02D09D8A01D085
:100EF0009D9A9E9ADBAE02D09D8801D09D98FB0EF4
:100F0000DB50AF6EFB0EFC0EDBCF11F011C010F00A
:100F1000116A1050B06EAC8AAB8E949C948EAC501B
:100F2000100B04E0AC50800B01E1948CE552E5CF4E
:080F3000DAFFE7CFD9FF120040
:080F3800FD0EE66EDAEC07F095
:100F4000E552FD0EE66E04EC08F0E552F088F092F2
:100F5000F0901200DACFE4FFE2CFDAFFE652F0922F
:100F60000101C40EA25D090EA35902E207D003D00D
:100F70000101A26BA36B0201010E006FE552E5CFE8
:100F8000DAFF1100DACFE4FFE2CFDAFFE652F090A9
:100F90000101C40EA45D090EA55902E207D003D0D9
:100FA0000101A46BA56B0201010E016FE552E5CFB3
:040FB000DAFF110053
:0C0FB400D9CFE6FFDACFE6FFE1CFD9FF8E
:100FC000E2CFDAFFF092FD0EDBA202D0F18801D071
:100FD000F198DBA002D0F18E01D0F19E9384DBACBE
:100FE00002D0F18001D0F190DBAC02D0F08E01D0C4
:100FF000F09EDBAE02D0F08801D0F098E552E5CF4C
:08100000DAFFE7CFD9FF12006F
:08100800D9CFE6FFDACFE6FFC5
:10101000E1CFD9FFE2CFDAFFF090FD0EDBA202D0E4
:10102000F18A01D0F19ADBA002D0F18E01D0F19EBD
:10103000DBAC02D0F18001D0F190DBAC02D0F08CBF
:1010400001D0F09C9382DBAE02D0F08601D0F09606
:0C105000E552E5CFDAFFE7CFD9FF120030
:04105C0047EC09F064
:10106000000EE66EE66ADF0EE66EB10EE66EC1ECCD
:1010700006F0E552E552E552E5529CEC07F070ECC3
:1010800004F019EC00F00101FA0E9C5D000E9D5970
:1010900007E31FEC09F083EC04F001019C6B9D6BEE
:0810A000CDEC00F0F0D71200C6
:0810A800036A026A016A006A92
:1010B000200EE76ED8900436053606360736003621
:1010C0000136023603360950005C0A5001580B50B5
:1010D00002580C50035809E30950005E0A50015AA7
:1010E0000B50025A0C50035A042AE72EE4D7120080
:1010F000D9CFE6FFDACFE6FFE1CFD9FFE2CFDAFFC3
:10110000FD0EDB507E0BCD6EFD0EDBAC02D0CD8E26
:1011100001D0CD9ECF6ACE6A9E90DBAE02D09D807C
:1011200001D09D90CD80E552E5CFDAFFE7CFD9FF22
:021130001200AB
:0E113200D9CFE6FFDACFE6FFE1CFD9FFE2CF5B
:10114000DAFFE652F20E0101C017ABAC03D0C0913A
:10115000ABB0C081ABB4C085ABB2C087AE50DF6E60
:10116000DF50E552E552E5CFDAFFE7CFD9FF1200B5
:10117000D9CFE6FFDACFE6FFE1CFD9FFE2CFDAFF42
:10118000E652E652FC0EDBCFDEFFDBCFDDFF010EC9
:10119000DB50CF6EDF50CE6EE552E552E552E5CF23
:0811A000DAFFE7CFD9FF1200CE
:0811A800D9CFE6FFDACFE6FF24
:1011B000E1CFD9FFE2CFDAFFE652E652FC0EDBCFF9
:1011C000DEFFDBCFDDFF010EDB50D76EDF50D66ECA
:1011D000E552E552E552E5CFDAFFE7CFD9FF12003D
:1011E000D9CFE6FFDACFE6FFE1CFD9FFE2CFDAFFD2
:1011F000FD0EDB507F0BD56ED76AD66AF294FD0EDA
:10120000DBAE02D0F28A01D0F29AD58EE552E5CF5C
:08121000DAFFE7CFD9FF12005D
:08121800000EF36E00EE00F081
:10122000060E01D81200EA6002D0EE6AFCD7F35035
:08123000E9601200EE6AFCD730
:081238000101C26B120001016B
:10124000C20504E10101C26B839404D00101010EC7
:06125000C26F838412004E
:0A12560010EE80F020EE80F0F86A40
:101260000F9C08EC07F003EC00F02EEC08F0FBD725
:0212700012006A
:0E127200FE0EE3CFE9FFFF0EE3CFEAFFF36AC3
:0E128000F46AEE5203E0F34AF42AFBD71200A0
:02128E00C26A32
:101290000F0EC16E600ED3129B8C949C948E95940D
:0612A00093809380120010
:0A12A600000000000000000000003E
:1012B000000000000000000000000000000000002E
:1012C000000000000000000000000000000000001E
:1012D000000000000000000000000000000000000E
:1012E00000000000000000000000000000000000FE
:1012F00000000000000000000000000000000000EE
:1013000000000000000000000000000000000000DD
:1013100000000000000000000000000000000000CD
:0C132000000000000000000000000000C1
:04132C0000000000BD
:1013300000000000000000000000000000000000AD
:10134000000000000000000000000000000000009D
:10135000000000000000000000000000000000008D
:10136000000000000000000000000000000000007D
:10137000000000000000000000000000000000006D
:10138000000000000000000000000000000000005D
:10139000000000000000000000000000000000004D
:1013A000000000000000000000000000000000003D
:1013B000000000000000000000000000000000002D
:1013C000000000000000000000000000000000001D
:1013D000000000000000000000000000000000000D
:1013E00000000000000000000000000000000000FD
:1013F00000000000000000000000000000000000ED
:1014000000000000000000000000000000000000DC
:1014100000000000000000000000000000000000CC
:1014200000000000000000000000000000000000BC
:1014300000000000000000000000000000000000AC
:021440000000AA
:0E14420000000000000000000000000000009C
:041450000000000098
:05145400000000000093
:020000040030CA
:0100010008F6
:010002001BE2
:0100030012EA
:010005008179
:010006008178
:010008000FE8
:01000900C036
:01000A000FE6
:01000B00E014
:01000C000FE4
:01000D0040B2
:00000001FF
